{
  "address": "0x37E1C078cCF53DcE069D419d200b3645bF637004",
  "abi": [
    {
      "stateMutability": "payable",
      "type": "fallback"
    },
    {
      "inputs": [
        {
          "internalType": "string",
          "name": "_ProposalTitle",
          "type": "string"
        },
        {
          "internalType": "string",
          "name": "_ProposalDescription",
          "type": "string"
        }
      ],
      "name": "createProposal",
      "outputs": [],
      "stateMutability": "nonpayable",
      "type": "function"
    },
    {
      "inputs": [
        {
          "internalType": "uint256",
          "name": "_proposalId",
          "type": "uint256"
        }
      ],
      "name": "excecution",
      "outputs": [],
      "stateMutability": "nonpayable",
      "type": "function"
    },
    {
      "inputs": [
        {
          "internalType": "uint256",
          "name": "_proposalId",
          "type": "uint256"
        }
      ],
      "name": "getExcecutionStatus",
      "outputs": [
        {
          "internalType": "bool",
          "name": "",
          "type": "bool"
        }
      ],
      "stateMutability": "view",
      "type": "function"
    },
    {
      "inputs": [],
      "name": "getProposalCount",
      "outputs": [
        {
          "internalType": "uint256",
          "name": "",
          "type": "uint256"
        }
      ],
      "stateMutability": "view",
      "type": "function"
    },
    {
      "inputs": [
        {
          "internalType": "uint256",
          "name": "_proposalId",
          "type": "uint256"
        }
      ],
      "name": "getProposalTitle",
      "outputs": [
        {
          "internalType": "string",
          "name": "",
          "type": "string"
        }
      ],
      "stateMutability": "view",
      "type": "function"
    },
    {
      "inputs": [
        {
          "internalType": "uint256",
          "name": "_proposalId",
          "type": "uint256"
        }
      ],
      "name": "getYesVotes",
      "outputs": [
        {
          "internalType": "uint256",
          "name": "",
          "type": "uint256"
        }
      ],
      "stateMutability": "view",
      "type": "function"
    },
    {
      "inputs": [
        {
          "internalType": "uint256",
          "name": "_proposalId",
          "type": "uint256"
        }
      ],
      "name": "getproposal",
      "outputs": [
        {
          "components": [
            {
              "internalType": "uint256",
              "name": "proposalId",
              "type": "uint256"
            },
            {
              "internalType": "string",
              "name": "proposalTitle",
              "type": "string"
            },
            {
              "internalType": "string",
              "name": "proposalDescription",
              "type": "string"
            },
            {
              "internalType": "uint256",
              "name": "yesVotes",
              "type": "uint256"
            },
            {
              "internalType": "uint256",
              "name": "noVotes",
              "type": "uint256"
            },
            {
              "internalType": "bool",
              "name": "excecuted",
              "type": "bool"
            },
            {
              "internalType": "uint256",
              "name": "deadline",
              "type": "uint256"
            }
          ],
          "internalType": "struct voting.Proposal",
          "name": "",
          "type": "tuple"
        }
      ],
      "stateMutability": "view",
      "type": "function"
    },
    {
      "inputs": [
        {
          "internalType": "uint256",
          "name": "",
          "type": "uint256"
        }
      ],
      "name": "proposalData",
      "outputs": [
        {
          "internalType": "uint256",
          "name": "proposalId",
          "type": "uint256"
        },
        {
          "internalType": "string",
          "name": "proposalTitle",
          "type": "string"
        },
        {
          "internalType": "string",
          "name": "proposalDescription",
          "type": "string"
        },
        {
          "internalType": "uint256",
          "name": "yesVotes",
          "type": "uint256"
        },
        {
          "internalType": "uint256",
          "name": "noVotes",
          "type": "uint256"
        },
        {
          "internalType": "bool",
          "name": "excecuted",
          "type": "bool"
        },
        {
          "internalType": "uint256",
          "name": "deadline",
          "type": "uint256"
        }
      ],
      "stateMutability": "view",
      "type": "function"
    },
    {
      "inputs": [
        {
          "internalType": "uint256",
          "name": "_proposalId",
          "type": "uint256"
        },
        {
          "internalType": "enum voting.voteOption",
          "name": "vote",
          "type": "uint8"
        }
      ],
      "name": "voteProposal",
      "outputs": [],
      "stateMutability": "nonpayable",
      "type": "function"
    },
    {
      "inputs": [
        {
          "internalType": "address",
          "name": "",
          "type": "address"
        }
      ],
      "name": "voterData",
      "outputs": [
        {
          "internalType": "bool",
          "name": "",
          "type": "bool"
        }
      ],
      "stateMutability": "view",
      "type": "function"
    },
    {
      "stateMutability": "payable",
      "type": "receive"
    }
  ],
  "transactionHash": "0x3ebbd46559e1c0ea465f8f2a6c63124fc70122b05d9c3a536540b7bfc806fbd0",
  "args": [],
  "numDeployments": 7,
  "solcInputHash": "120348f5a03a3e181c42c82aa1cd729c",
  "bytecode": "0x6080604052600060015534801561001557600080fd5b50611143806100256000396000f3fe6080604052600436106100955760003560e01c806396dea9361161005957806396dea936146101a7578063aafe998a146101ea578063c08cc02d14610213578063cbba67f21461023e578063e467d9421461027b5761009c565b806301c89f411461009e5780630956abb8146100db5780633dca3d341461011857806365e481e2146101415780638795075f1461016a5761009c565b3661009c57005b005b3480156100aa57600080fd5b506100c560048036038101906100c09190610a20565b6102b8565b6040516100d29190610a68565b60405180910390f35b3480156100e757600080fd5b5061010260048036038101906100fd9190610a20565b6102ea565b60405161010f9190610a92565b60405180910390f35b34801561012457600080fd5b5061013f600480360381019061013a9190610ad2565b61030f565b005b34801561014d57600080fd5b5061016860048036038101906101639190610c58565b610422565b005b34801561017657600080fd5b50610191600480360381019061018c9190610a20565b6104ab565b60405161019e9190610e19565b60405180910390f35b3480156101b357600080fd5b506101ce60048036038101906101c99190610a20565b610645565b6040516101e19796959493929190610e85565b60405180910390f35b3480156101f657600080fd5b50610211600480360381019061020c9190610a20565b6107a4565b005b34801561021f57600080fd5b5061022861081c565b6040516102359190610a92565b60405180910390f35b34801561024a57600080fd5b5061026560048036038101906102609190610a20565b610826565b6040516102729190610f02565b60405180910390f35b34801561028757600080fd5b506102a2600480360381019061029d9190610f82565b6108d4565b6040516102af9190610a68565b60405180910390f35b6000806002600084815260200190815260200160002090508060050160009054906101000a900460ff16915050919050565b6000806002600084815260200190815260200160002090508060030154915050919050565b60006002600084815260200190815260200160002090504281600601541061041d5760016000803373ffffffffffffffffffffffffffffffffffffffff1673ffffffffffffffffffffffffffffffffffffffff16815260200190815260200160002060006101000a81548160ff0219169083151502179055506000600181111561039c5761039b610faf565b5b8260018111156103af576103ae610faf565b5b14156103d4578060030160008154809291906103ca9061100d565b919050555061041c565b6001808111156103e7576103e6610faf565b5b8260018111156103fa576103f9610faf565b5b141561041b578060040160008154809291906104159061100d565b91905055505b5b5b505050565b600160008154809291906104359061100d565b9190505550600060026000600154815260200190815260200160002090506001548160000181905550828160010190805190602001906104769291906108f4565b508181600201908051906020019061048f9291906108f4565b506102584261049e9190611056565b8160060181905550505050565b6104b361097a565b6000600260008481526020019081526020016000209050806040518060e0016040529081600082015481526020016001820180546104f0906110db565b80601f016020809104026020016040519081016040528092919081815260200182805461051c906110db565b80156105695780601f1061053e57610100808354040283529160200191610569565b820191906000526020600020905b81548152906001019060200180831161054c57829003601f168201915b50505050508152602001600282018054610582906110db565b80601f01602080910402602001604051908101604052809291908181526020018280546105ae906110db565b80156105fb5780601f106105d0576101008083540402835291602001916105fb565b820191906000526020600020905b8154815290600101906020018083116105de57829003601f168201915b5050505050815260200160038201548152602001600482015481526020016005820160009054906101000a900460ff16151515158152602001600682015481525050915050919050565b600260205280600052604060002060009150905080600001549080600101805461066e906110db565b80601f016020809104026020016040519081016040528092919081815260200182805461069a906110db565b80156106e75780601f106106bc576101008083540402835291602001916106e7565b820191906000526020600020905b8154815290600101906020018083116106ca57829003601f168201915b5050505050908060020180546106fc906110db565b80601f0160208091040260200160405190810160405280929190818152602001828054610728906110db565b80156107755780601f1061074a57610100808354040283529160200191610775565b820191906000526020600020905b81548152906001019060200180831161075857829003601f168201915b5050505050908060030154908060040154908060050160009054906101000a900460ff16908060060154905087565b60006002600083815260200190815260200160002090508060060154421115610818578060040154816003015411156107f95760018160050160006101000a81548160ff021916908315150217905550610817565b60008160050160006101000a81548160ff0219169083151502179055505b5b5050565b6000600154905090565b6060600060026000848152602001908152602001600020905080600101805461084e906110db565b80601f016020809104026020016040519081016040528092919081815260200182805461087a906110db565b80156108c75780601f1061089c576101008083540402835291602001916108c7565b820191906000526020600020905b8154815290600101906020018083116108aa57829003601f168201915b5050505050915050919050565b60006020528060005260406000206000915054906101000a900460ff1681565b828054610900906110db565b90600052602060002090601f0160209004810192826109225760008555610969565b82601f1061093b57805160ff1916838001178555610969565b82800160010185558215610969579182015b8281111561096857825182559160200191906001019061094d565b5b50905061097691906109b9565b5090565b6040518060e001604052806000815260200160608152602001606081526020016000815260200160008152602001600015158152602001600081525090565b5b808211156109d25760008160009055506001016109ba565b5090565b6000604051905090565b600080fd5b600080fd5b6000819050919050565b6109fd816109ea565b8114610a0857600080fd5b50565b600081359050610a1a816109f4565b92915050565b600060208284031215610a3657610a356109e0565b5b6000610a4484828501610a0b565b91505092915050565b60008115159050919050565b610a6281610a4d565b82525050565b6000602082019050610a7d6000830184610a59565b92915050565b610a8c816109ea565b82525050565b6000602082019050610aa76000830184610a83565b92915050565b60028110610aba57600080fd5b50565b600081359050610acc81610aad565b92915050565b60008060408385031215610ae957610ae86109e0565b5b6000610af785828601610a0b565b9250506020610b0885828601610abd565b9150509250929050565b600080fd5b600080fd5b6000601f19601f8301169050919050565b7f4e487b7100000000000000000000000000000000000000000000000000000000600052604160045260246000fd5b610b6582610b1c565b810181811067ffffffffffffffff82111715610b8457610b83610b2d565b5b80604052505050565b6000610b976109d6565b9050610ba38282610b5c565b919050565b600067ffffffffffffffff821115610bc357610bc2610b2d565b5b610bcc82610b1c565b9050602081019050919050565b82818337600083830152505050565b6000610bfb610bf684610ba8565b610b8d565b905082815260208101848484011115610c1757610c16610b17565b5b610c22848285610bd9565b509392505050565b600082601f830112610c3f57610c3e610b12565b5b8135610c4f848260208601610be8565b91505092915050565b60008060408385031215610c6f57610c6e6109e0565b5b600083013567ffffffffffffffff811115610c8d57610c8c6109e5565b5b610c9985828601610c2a565b925050602083013567ffffffffffffffff811115610cba57610cb96109e5565b5b610cc685828601610c2a565b9150509250929050565b610cd9816109ea565b82525050565b600081519050919050565b600082825260208201905092915050565b60005b83811015610d19578082015181840152602081019050610cfe565b83811115610d28576000848401525b50505050565b6000610d3982610cdf565b610d438185610cea565b9350610d53818560208601610cfb565b610d5c81610b1c565b840191505092915050565b610d7081610a4d565b82525050565b600060e083016000830151610d8e6000860182610cd0565b5060208301518482036020860152610da68282610d2e565b91505060408301518482036040860152610dc08282610d2e565b9150506060830151610dd56060860182610cd0565b506080830151610de86080860182610cd0565b5060a0830151610dfb60a0860182610d67565b5060c0830151610e0e60c0860182610cd0565b508091505092915050565b60006020820190508181036000830152610e338184610d76565b905092915050565b600082825260208201905092915050565b6000610e5782610cdf565b610e618185610e3b565b9350610e71818560208601610cfb565b610e7a81610b1c565b840191505092915050565b600060e082019050610e9a600083018a610a83565b8181036020830152610eac8189610e4c565b90508181036040830152610ec08188610e4c565b9050610ecf6060830187610a83565b610edc6080830186610a83565b610ee960a0830185610a59565b610ef660c0830184610a83565b98975050505050505050565b60006020820190508181036000830152610f1c8184610e4c565b905092915050565b600073ffffffffffffffffffffffffffffffffffffffff82169050919050565b6000610f4f82610f24565b9050919050565b610f5f81610f44565b8114610f6a57600080fd5b50565b600081359050610f7c81610f56565b92915050565b600060208284031215610f9857610f976109e0565b5b6000610fa684828501610f6d565b91505092915050565b7f4e487b7100000000000000000000000000000000000000000000000000000000600052602160045260246000fd5b7f4e487b7100000000000000000000000000000000000000000000000000000000600052601160045260246000fd5b6000611018826109ea565b91507fffffffffffffffffffffffffffffffffffffffffffffffffffffffffffffffff82141561104b5761104a610fde565b5b600182019050919050565b6000611061826109ea565b915061106c836109ea565b9250827fffffffffffffffffffffffffffffffffffffffffffffffffffffffffffffffff038211156110a1576110a0610fde565b5b828201905092915050565b7f4e487b7100000000000000000000000000000000000000000000000000000000600052602260045260246000fd5b600060028204905060018216806110f357607f821691505b60208210811415611107576111066110ac565b5b5091905056fea26469706673582212206a6940984eb91b8fa2e3c7e80e23b4934b2c059a09bdd46dbc6a8898f077c0e564736f6c63430008090033",
  "devdoc": {
    "kind": "dev",
    "methods": {},
    "version": 1
  },
  "userdoc": {
    "kind": "user",
    "methods": {},
    "version": 1
  },
  "storageLayout": {
    "storage": [
      {
        "astId": 20,
        "contract": "contracts/voting.sol:voting",
        "label": "voterData",
        "offset": 0,
        "slot": "0",
        "type": "t_mapping(t_address,t_bool)"
      },
      {
        "astId": 23,
        "contract": "contracts/voting.sol:voting",
        "label": "proposalCount",
        "offset": 0,
        "slot": "1",
        "type": "t_uint256"
      },
      {
        "astId": 28,
        "contract": "contracts/voting.sol:voting",
        "label": "proposalData",
        "offset": 0,
        "slot": "2",
        "type": "t_mapping(t_uint256,t_struct(Proposal)16_storage)"
      }
    ],
    "types": {
      "t_address": {
        "encoding": "inplace",
        "label": "address",
        "numberOfBytes": "20"
      },
      "t_bool": {
        "encoding": "inplace",
        "label": "bool",
        "numberOfBytes": "1"
      },
      "t_mapping(t_address,t_bool)": {
        "encoding": "mapping",
        "key": "t_address",
        "label": "mapping(address => bool)",
        "numberOfBytes": "32",
        "value": "t_bool"
      },
      "t_mapping(t_uint256,t_struct(Proposal)16_storage)": {
        "encoding": "mapping",
        "key": "t_uint256",
        "label": "mapping(uint256 => struct voting.Proposal)",
        "numberOfBytes": "32",
        "value": "t_struct(Proposal)16_storage"
      },
      "t_string_storage": {
        "encoding": "bytes",
        "label": "string",
        "numberOfBytes": "32"
      },
      "t_struct(Proposal)16_storage": {
        "encoding": "inplace",
        "label": "struct voting.Proposal",
        "members": [
          {
            "astId": 3,
            "contract": "contracts/voting.sol:voting",
            "label": "proposalId",
            "offset": 0,
            "slot": "0",
            "type": "t_uint256"
          },
          {
            "astId": 5,
            "contract": "contracts/voting.sol:voting",
            "label": "proposalTitle",
            "offset": 0,
            "slot": "1",
            "type": "t_string_storage"
          },
          {
            "astId": 7,
            "contract": "contracts/voting.sol:voting",
            "label": "proposalDescription",
            "offset": 0,
            "slot": "2",
            "type": "t_string_storage"
          },
          {
            "astId": 9,
            "contract": "contracts/voting.sol:voting",
            "label": "yesVotes",
            "offset": 0,
            "slot": "3",
            "type": "t_uint256"
          },
          {
            "astId": 11,
            "contract": "contracts/voting.sol:voting",
            "label": "noVotes",
            "offset": 0,
            "slot": "4",
            "type": "t_uint256"
          },
          {
            "astId": 13,
            "contract": "contracts/voting.sol:voting",
            "label": "excecuted",
            "offset": 0,
            "slot": "5",
            "type": "t_bool"
          },
          {
            "astId": 15,
            "contract": "contracts/voting.sol:voting",
            "label": "deadline",
            "offset": 0,
            "slot": "6",
            "type": "t_uint256"
          }
        ],
        "numberOfBytes": "224"
      },
      "t_uint256": {
        "encoding": "inplace",
        "label": "uint256",
        "numberOfBytes": "32"
      }
    }
  }
}